{
  "_format": "hh-sol-artifact-1",
  "contractName": "FractionalNFTMarketplace",
  "sourceName": "contracts/FractionalNFTMarketplace.sol",
  "abi": [
    {
      "inputs": [],
      "stateMutability": "nonpayable",
      "type": "constructor"
    },
    {
      "anonymous": false,
      "inputs": [
        {
          "indexed": true,
          "internalType": "address",
          "name": "owner",
          "type": "address"
        },
        {
          "indexed": true,
          "internalType": "address",
          "name": "approved",
          "type": "address"
        },
        {
          "indexed": true,
          "internalType": "uint256",
          "name": "tokenId",
          "type": "uint256"
        }
      ],
      "name": "Approval",
      "type": "event"
    },
    {
      "anonymous": false,
      "inputs": [
        {
          "indexed": true,
          "internalType": "address",
          "name": "owner",
          "type": "address"
        },
        {
          "indexed": true,
          "internalType": "address",
          "name": "operator",
          "type": "address"
        },
        {
          "indexed": false,
          "internalType": "bool",
          "name": "approved",
          "type": "bool"
        }
      ],
      "name": "ApprovalForAll",
      "type": "event"
    },
    {
      "anonymous": false,
      "inputs": [
        {
          "indexed": false,
          "internalType": "uint256",
          "name": "_fromTokenId",
          "type": "uint256"
        },
        {
          "indexed": false,
          "internalType": "uint256",
          "name": "_toTokenId",
          "type": "uint256"
        }
      ],
      "name": "BatchMetadataUpdate",
      "type": "event"
    },
    {
      "anonymous": false,
      "inputs": [
        {
          "indexed": false,
          "internalType": "uint256",
          "name": "_tokenId",
          "type": "uint256"
        }
      ],
      "name": "MetadataUpdate",
      "type": "event"
    },
    {
      "anonymous": false,
      "inputs": [
        {
          "indexed": true,
          "internalType": "uint256",
          "name": "tokenId",
          "type": "uint256"
        },
        {
          "indexed": false,
          "internalType": "address",
          "name": "owner",
          "type": "address"
        },
        {
          "indexed": false,
          "internalType": "address",
          "name": "seller",
          "type": "address"
        },
        {
          "indexed": false,
          "internalType": "uint256",
          "name": "pricePerShare",
          "type": "uint256"
        },
        {
          "indexed": false,
          "internalType": "uint256",
          "name": "totalShares",
          "type": "uint256"
        },
        {
          "indexed": false,
          "internalType": "uint256",
          "name": "availableShares",
          "type": "uint256"
        }
      ],
      "name": "TokenListedSuccess",
      "type": "event"
    },
    {
      "anonymous": false,
      "inputs": [
        {
          "indexed": true,
          "internalType": "address",
          "name": "from",
          "type": "address"
        },
        {
          "indexed": true,
          "internalType": "address",
          "name": "to",
          "type": "address"
        },
        {
          "indexed": true,
          "internalType": "uint256",
          "name": "tokenId",
          "type": "uint256"
        }
      ],
      "name": "Transfer",
      "type": "event"
    },
    {
      "inputs": [
        {
          "internalType": "address",
          "name": "to",
          "type": "address"
        },
        {
          "internalType": "uint256",
          "name": "tokenId",
          "type": "uint256"
        }
      ],
      "name": "approve",
      "outputs": [],
      "stateMutability": "nonpayable",
      "type": "function"
    },
    {
      "inputs": [
        {
          "internalType": "address",
          "name": "owner",
          "type": "address"
        }
      ],
      "name": "balanceOf",
      "outputs": [
        {
          "internalType": "uint256",
          "name": "",
          "type": "uint256"
        }
      ],
      "stateMutability": "view",
      "type": "function"
    },
    {
      "inputs": [
        {
          "internalType": "string",
          "name": "tokenURI",
          "type": "string"
        },
        {
          "internalType": "uint256",
          "name": "pricePerShare",
          "type": "uint256"
        },
        {
          "internalType": "uint256",
          "name": "totalShares",
          "type": "uint256"
        }
      ],
      "name": "createFractionalToken",
      "outputs": [
        {
          "internalType": "uint256",
          "name": "",
          "type": "uint256"
        }
      ],
      "stateMutability": "payable",
      "type": "function"
    },
    {
      "inputs": [
        {
          "internalType": "uint256",
          "name": "tokenId",
          "type": "uint256"
        },
        {
          "internalType": "uint256",
          "name": "shares",
          "type": "uint256"
        }
      ],
      "name": "executeFractionalPurchase",
      "outputs": [],
      "stateMutability": "payable",
      "type": "function"
    },
    {
      "inputs": [],
      "name": "getAllNFTs",
      "outputs": [
        {
          "internalType": "uint256[]",
          "name": "",
          "type": "uint256[]"
        }
      ],
      "stateMutability": "view",
      "type": "function"
    },
    {
      "inputs": [
        {
          "internalType": "uint256",
          "name": "tokenId",
          "type": "uint256"
        }
      ],
      "name": "getApproved",
      "outputs": [
        {
          "internalType": "address",
          "name": "",
          "type": "address"
        }
      ],
      "stateMutability": "view",
      "type": "function"
    },
    {
      "inputs": [],
      "name": "getListPrice",
      "outputs": [
        {
          "internalType": "uint256",
          "name": "",
          "type": "uint256"
        }
      ],
      "stateMutability": "view",
      "type": "function"
    },
    {
      "inputs": [
        {
          "internalType": "uint256",
          "name": "tokenId",
          "type": "uint256"
        },
        {
          "internalType": "address",
          "name": "account",
          "type": "address"
        }
      ],
      "name": "getSharesOwned",
      "outputs": [
        {
          "internalType": "uint256",
          "name": "",
          "type": "uint256"
        }
      ],
      "stateMutability": "view",
      "type": "function"
    },
    {
      "inputs": [
        {
          "internalType": "uint256",
          "name": "tokenId",
          "type": "uint256"
        }
      ],
      "name": "getTokenData",
      "outputs": [
        {
          "internalType": "string",
          "name": "URI",
          "type": "string"
        },
        {
          "internalType": "uint256",
          "name": "pricePerShare",
          "type": "uint256"
        },
        {
          "internalType": "uint256",
          "name": "totalShares",
          "type": "uint256"
        },
        {
          "internalType": "uint256",
          "name": "availableShares",
          "type": "uint256"
        }
      ],
      "stateMutability": "view",
      "type": "function"
    },
    {
      "inputs": [
        {
          "internalType": "uint256",
          "name": "tokenId",
          "type": "uint256"
        }
      ],
      "name": "getTotalShares",
      "outputs": [
        {
          "internalType": "uint256",
          "name": "",
          "type": "uint256"
        }
      ],
      "stateMutability": "view",
      "type": "function"
    },
    {
      "inputs": [
        {
          "internalType": "address",
          "name": "owner",
          "type": "address"
        },
        {
          "internalType": "address",
          "name": "operator",
          "type": "address"
        }
      ],
      "name": "isApprovedForAll",
      "outputs": [
        {
          "internalType": "bool",
          "name": "",
          "type": "bool"
        }
      ],
      "stateMutability": "view",
      "type": "function"
    },
    {
      "inputs": [],
      "name": "name",
      "outputs": [
        {
          "internalType": "string",
          "name": "",
          "type": "string"
        }
      ],
      "stateMutability": "view",
      "type": "function"
    },
    {
      "inputs": [
        {
          "internalType": "uint256",
          "name": "tokenId",
          "type": "uint256"
        }
      ],
      "name": "ownerOf",
      "outputs": [
        {
          "internalType": "address",
          "name": "",
          "type": "address"
        }
      ],
      "stateMutability": "view",
      "type": "function"
    },
    {
      "inputs": [
        {
          "internalType": "address",
          "name": "from",
          "type": "address"
        },
        {
          "internalType": "address",
          "name": "to",
          "type": "address"
        },
        {
          "internalType": "uint256",
          "name": "tokenId",
          "type": "uint256"
        }
      ],
      "name": "safeTransferFrom",
      "outputs": [],
      "stateMutability": "nonpayable",
      "type": "function"
    },
    {
      "inputs": [
        {
          "internalType": "address",
          "name": "from",
          "type": "address"
        },
        {
          "internalType": "address",
          "name": "to",
          "type": "address"
        },
        {
          "internalType": "uint256",
          "name": "tokenId",
          "type": "uint256"
        },
        {
          "internalType": "bytes",
          "name": "data",
          "type": "bytes"
        }
      ],
      "name": "safeTransferFrom",
      "outputs": [],
      "stateMutability": "nonpayable",
      "type": "function"
    },
    {
      "inputs": [
        {
          "internalType": "address",
          "name": "operator",
          "type": "address"
        },
        {
          "internalType": "bool",
          "name": "approved",
          "type": "bool"
        }
      ],
      "name": "setApprovalForAll",
      "outputs": [],
      "stateMutability": "nonpayable",
      "type": "function"
    },
    {
      "inputs": [
        {
          "internalType": "bytes4",
          "name": "interfaceId",
          "type": "bytes4"
        }
      ],
      "name": "supportsInterface",
      "outputs": [
        {
          "internalType": "bool",
          "name": "",
          "type": "bool"
        }
      ],
      "stateMutability": "view",
      "type": "function"
    },
    {
      "inputs": [],
      "name": "symbol",
      "outputs": [
        {
          "internalType": "string",
          "name": "",
          "type": "string"
        }
      ],
      "stateMutability": "view",
      "type": "function"
    },
    {
      "inputs": [
        {
          "internalType": "uint256",
          "name": "tokenId",
          "type": "uint256"
        }
      ],
      "name": "tokenURI",
      "outputs": [
        {
          "internalType": "string",
          "name": "",
          "type": "string"
        }
      ],
      "stateMutability": "view",
      "type": "function"
    },
    {
      "inputs": [
        {
          "internalType": "address",
          "name": "from",
          "type": "address"
        },
        {
          "internalType": "address",
          "name": "to",
          "type": "address"
        },
        {
          "internalType": "uint256",
          "name": "tokenId",
          "type": "uint256"
        }
      ],
      "name": "transferFrom",
      "outputs": [],
      "stateMutability": "nonpayable",
      "type": "function"
    },
    {
      "inputs": [
        {
          "internalType": "uint256",
          "name": "_listPrice",
          "type": "uint256"
        }
      ],
      "name": "updateListPrice",
      "outputs": [],
      "stateMutability": "payable",
      "type": "function"
    }
  ],
  "bytecode": "0x6080604052662386f26fc10000600a553480156200001c57600080fd5b50604080518082018252601881527f4672616374696f6e616c4e46544d61726b6574706c6163650000000000000000602080830191825283518085019094526005845264464e46544d60d81b9084015281519192916200007f91600091620000b0565b50805162000095906001906020840190620000b0565b5050600980546001600160a01b031916331790555062000193565b828054620000be9062000156565b90600052602060002090601f016020900481019282620000e257600085556200012d565b82601f10620000fd57805160ff19168380011785556200012d565b828001600101855582156200012d579182015b828111156200012d57825182559160200191906001019062000110565b506200013b9291506200013f565b5090565b5b808211156200013b576000815560010162000140565b600181811c908216806200016b57607f821691505b602082108114156200018d57634e487b7160e01b600052602260045260246000fd5b50919050565b611e4680620001a36000396000f3fe60806040526004361061012a5760003560e01c806385fff858116100ab578063c322579c1161006f578063c322579c14610348578063c87b56dd1461035b578063d3d622f21461037b578063e0391b091461038e578063e7ebadfe146103b0578063e985e9c5146103f357600080fd5b806385fff8581461029657806395d89b41146102c3578063a22cb465146102d8578063b09afec1146102f8578063b88d4fde1461032857600080fd5b806342842e0e116100f257806342842e0e146102005780634f93d94c146102205780636352211e1461024157806368f1945f1461026157806370a082311461027657600080fd5b806301ffc9a71461012f57806306fdde0314610164578063081812fc14610186578063095ea7b3146101be57806323b872dd146101e0575b600080fd5b34801561013b57600080fd5b5061014f61014a366004611a0a565b61043c565b60405190151581526020015b60405180910390f35b34801561017057600080fd5b50610179610467565b60405161015b9190611bd8565b34801561019257600080fd5b506101a66101a1366004611aa1565b6104f9565b6040516001600160a01b03909116815260200161015b565b3480156101ca57600080fd5b506101de6101d93660046119e1565b610520565b005b3480156101ec57600080fd5b506101de6101fb3660046118f3565b61063b565b34801561020c57600080fd5b506101de61021b3660046118f3565b61066c565b61023361022e366004611a42565b610687565b60405190815260200161015b565b34801561024d57600080fd5b506101a661025c366004611aa1565b6107f2565b34801561026d57600080fd5b50600a54610233565b34801561028257600080fd5b506102336102913660046118a7565b610852565b3480156102a257600080fd5b506102336102b1366004611aa1565b6000908152600b602052604090205490565b3480156102cf57600080fd5b506101796108d8565b3480156102e457600080fd5b506101de6102f33660046119a7565b6108e7565b34801561030457600080fd5b50610318610313366004611aa1565b6108f6565b60405161015b9493929190611beb565b34801561033457600080fd5b506101de61034336600461192e565b6109a4565b6101de610356366004611aa1565b6109dc565b34801561036757600080fd5b50610179610376366004611aa1565b610a47565b6101de610389366004611adb565b610b58565b34801561039a57600080fd5b506103a3610d0c565b60405161015b9190611b94565b3480156103bc57600080fd5b506102336103cb366004611ab9565b6000918252600c602090815260408084206001600160a01b0393909316845291905290205490565b3480156103ff57600080fd5b5061014f61040e3660046118c1565b6001600160a01b03918216600090815260056020908152604080832093909416825291909152205460ff1690565b60006001600160e01b03198216632483248360e11b1480610461575061046182610dca565b92915050565b60606000805461047690611d78565b80601f01602080910402602001604051908101604052809291908181526020018280546104a290611d78565b80156104ef5780601f106104c4576101008083540402835291602001916104ef565b820191906000526020600020905b8154815290600101906020018083116104d257829003601f168201915b5050505050905090565b600061050482610e1a565b506000908152600460205260409020546001600160a01b031690565b600061052b826107f2565b9050806001600160a01b0316836001600160a01b0316141561059e5760405162461bcd60e51b815260206004820152602160248201527f4552433732313a20617070726f76616c20746f2063757272656e74206f776e656044820152603960f91b60648201526084015b60405180910390fd5b336001600160a01b03821614806105ba57506105ba813361040e565b61062c5760405162461bcd60e51b815260206004820152603d60248201527f4552433732313a20617070726f76652063616c6c6572206973206e6f7420746f60448201527f6b656e206f776e6572206f7220617070726f76656420666f7220616c6c0000006064820152608401610595565b6106368383610e7c565b505050565b6106453382610eea565b6106615760405162461bcd60e51b815260040161059590611c1a565b610636838383610f68565b610636838383604051806020016040528060008152506109a4565b6000610697600780546001019055565b60006106a260075490565b9050600a5434146107035760405162461bcd60e51b815260206004820152602560248201527f506c656173652073656e642074686520636f7272656374206c697374696e6720604482015264707269636560d81b6064820152608401610595565b6000841180156107135750600083115b61075f5760405162461bcd60e51b815260206004820152601d60248201527f496e76616c6964207072696365206f7220746f74616c207368617265730000006044820152606401610595565b6000818152600b60209081526040808320869055600c825280832033808552925290912084905561079090826110cc565b61079a81866110e6565b60408051308152336020820152908101859052606081018490526080810184905281907fd53877dc4e9cc65ecb784547d2bd05a44fca0c1fb96bfdb44d653486d03f1a4c9060a00160405180910390a2949350505050565b6000818152600260205260408120546001600160a01b0316806104615760405162461bcd60e51b8152602060048201526018602482015277115490cdcc8c4e881a5b9d985b1a59081d1bdad95b88125160421b6044820152606401610595565b60006001600160a01b0382166108bc5760405162461bcd60e51b815260206004820152602960248201527f4552433732313a2061646472657373207a65726f206973206e6f7420612076616044820152683634b21037bbb732b960b91b6064820152608401610595565b506001600160a01b031660009081526003602052604090205490565b60606001805461047690611d78565b6108f23383836111b8565b5050565b6060600080600061091e856000908152600260205260409020546001600160a01b0316151590565b6109615760405162461bcd60e51b8152602060048201526014602482015273151bdad95b88191bd95cc81b9bdd08195e1a5cdd60621b6044820152606401610595565b61096a85610a47565b9350610975600a5490565b6000958652600b6020908152604080882054600c8352818920338a529092529096205494969095949350915050565b6109ae3383610eea565b6109ca5760405162461bcd60e51b815260040161059590611c1a565b6109d684848484611287565b50505050565b6009546001600160a01b03163314610a425760405162461bcd60e51b815260206004820152602360248201527f4f6e6c79206f776e65722063616e20757064617465206c697374696e6720707260448201526269636560e81b6064820152608401610595565b600a55565b6060610a5282610e1a565b60008281526006602052604081208054610a6b90611d78565b80601f0160208091040260200160405190810160405280929190818152602001828054610a9790611d78565b8015610ae45780601f10610ab957610100808354040283529160200191610ae4565b820191906000526020600020905b815481529060010190602001808311610ac757829003601f168201915b505050505090506000610b0260408051602081019091526000815290565b9050805160001415610b15575092915050565b815115610b47578082604051602001610b2f929190611b28565b60405160208183030381529060405292505050919050565b610b50846112ba565b949350505050565b600a546000610b678383611d16565b90506000610b74856107f2565b9050813414610bde5760405162461bcd60e51b815260206004820152603060248201527f506c65617365207375626d69742074686520636f7272656374207061796d656e60448201526f7420666f72207468652073686172657360801b6064820152608401610595565b600084118015610c1057506000858152600c602090815260408083206001600160a01b03851684529091529020548411155b610c5c5760405162461bcd60e51b815260206004820152601860248201527f496e76616c6964206e756d626572206f662073686172657300000000000000006044820152606401610595565b6000858152600c602090815260408083206001600160a01b038516845290915281208054869290610c8e908490611d35565b90915550506000858152600c6020908152604080832033845290915281208054869290610cbc908490611cfe565b90915550506008805460010190556009546040516001600160a01b039091169083156108fc029084906000818181858888f19350505050158015610d04573d6000803e3d6000fd5b505050505050565b60606000610d1960075490565b905060008167ffffffffffffffff811115610d4457634e487b7160e01b600052604160045260246000fd5b604051908082528060200260200182016040528015610d6d578160200160208202803683370190505b50905060005b82811015610dc357610d86816001611cfe565b828281518110610da657634e487b7160e01b600052603260045260246000fd5b602090810291909101015280610dbb81611db3565b915050610d73565b5092915050565b60006001600160e01b031982166380ac58cd60e01b1480610dfb57506001600160e01b03198216635b5e139f60e01b145b8061046157506301ffc9a760e01b6001600160e01b0319831614610461565b6000818152600260205260409020546001600160a01b0316610e795760405162461bcd60e51b8152602060048201526018602482015277115490cdcc8c4e881a5b9d985b1a59081d1bdad95b88125160421b6044820152606401610595565b50565b600081815260046020526040902080546001600160a01b0319166001600160a01b0384169081179091558190610eb1826107f2565b6001600160a01b03167f8c5be1e5ebec7d5bd14f71427d1e84f3dd0314c0f7b2291e5b200ac8c7c3b92560405160405180910390a45050565b600080610ef6836107f2565b9050806001600160a01b0316846001600160a01b03161480610f3d57506001600160a01b0380821660009081526005602090815260408083209388168352929052205460ff165b80610b505750836001600160a01b0316610f56846104f9565b6001600160a01b031614949350505050565b826001600160a01b0316610f7b826107f2565b6001600160a01b031614610fa15760405162461bcd60e51b815260040161059590611cb9565b6001600160a01b0382166110035760405162461bcd60e51b8152602060048201526024808201527f4552433732313a207472616e7366657220746f20746865207a65726f206164646044820152637265737360e01b6064820152608401610595565b826001600160a01b0316611016826107f2565b6001600160a01b03161461103c5760405162461bcd60e51b815260040161059590611cb9565b600081815260046020908152604080832080546001600160a01b03199081169091556001600160a01b0387811680865260038552838620805460001901905590871680865283862080546001019055868652600290945282852080549092168417909155905184937fddf252ad1be2c89b69c2b068fc378daa952ba7f163c4a11628f55a4df523b3ef91a4505050565b6108f282826040518060200160405280600081525061132e565b6000828152600260205260409020546001600160a01b03166111615760405162461bcd60e51b815260206004820152602e60248201527f45524337323155524953746f726167653a2055524920736574206f66206e6f6e60448201526d32bc34b9ba32b73a103a37b5b2b760911b6064820152608401610595565b600082815260066020908152604090912082516111809284019061177c565b506040518281527ff8e1a15aba9398e019f0b49df1a4fde98ee17ae345cb5f6b5e2c27f5033e8ce79060200160405180910390a15050565b816001600160a01b0316836001600160a01b0316141561121a5760405162461bcd60e51b815260206004820152601960248201527f4552433732313a20617070726f766520746f2063616c6c6572000000000000006044820152606401610595565b6001600160a01b03838116600081815260056020908152604080832094871680845294825291829020805460ff191686151590811790915591519182527f17307eab39ab6107e8899845ad3d59bd9653f200f220920489ca2b5937696c31910160405180910390a3505050565b611292848484610f68565b61129e84848484611361565b6109d65760405162461bcd60e51b815260040161059590611c67565b60606112c582610e1a565b60006112dc60408051602081019091526000815290565b905060008151116112fc5760405180602001604052806000815250611327565b806113068461146e565b604051602001611317929190611b28565b6040516020818303038152906040525b9392505050565b6113388383611519565b6113456000848484611361565b6106365760405162461bcd60e51b815260040161059590611c67565b60006001600160a01b0384163b1561146357604051630a85bd0160e11b81526001600160a01b0385169063150b7a02906113a5903390899088908890600401611b57565b602060405180830381600087803b1580156113bf57600080fd5b505af19250505080156113ef575060408051601f3d908101601f191682019092526113ec91810190611a26565b60015b611449573d80801561141d576040519150601f19603f3d011682016040523d82523d6000602084013e611422565b606091505b5080516114415760405162461bcd60e51b815260040161059590611c67565b805181602001fd5b6001600160e01b031916630a85bd0160e11b149050610b50565b506001949350505050565b6060600061147b836116a4565b600101905060008167ffffffffffffffff8111156114a957634e487b7160e01b600052604160045260246000fd5b6040519080825280601f01601f1916602001820160405280156114d3576020820181803683370190505b5090508181016020015b600019016f181899199a1a9b1b9c1cb0b131b232b360811b600a86061a8153600a850494508461150c57611511565b6114dd565b509392505050565b6001600160a01b03821661156f5760405162461bcd60e51b815260206004820181905260248201527f4552433732313a206d696e7420746f20746865207a65726f20616464726573736044820152606401610595565b6000818152600260205260409020546001600160a01b0316156115d45760405162461bcd60e51b815260206004820152601c60248201527f4552433732313a20746f6b656e20616c7265616479206d696e746564000000006044820152606401610595565b6000818152600260205260409020546001600160a01b0316156116395760405162461bcd60e51b815260206004820152601c60248201527f4552433732313a20746f6b656e20616c7265616479206d696e746564000000006044820152606401610595565b6001600160a01b038216600081815260036020908152604080832080546001019055848352600290915280822080546001600160a01b0319168417905551839291907fddf252ad1be2c89b69c2b068fc378daa952ba7f163c4a11628f55a4df523b3ef908290a45050565b60008072184f03e93ff9f4daa797ed6e38ed64bf6a1f0160401b83106116e35772184f03e93ff9f4daa797ed6e38ed64bf6a1f0160401b830492506040015b6d04ee2d6d415b85acef8100000000831061170f576d04ee2d6d415b85acef8100000000830492506020015b662386f26fc10000831061172d57662386f26fc10000830492506010015b6305f5e1008310611745576305f5e100830492506008015b612710831061175957612710830492506004015b6064831061176b576064830492506002015b600a83106104615760010192915050565b82805461178890611d78565b90600052602060002090601f0160209004810192826117aa57600085556117f0565b82601f106117c357805160ff19168380011785556117f0565b828001600101855582156117f0579182015b828111156117f05782518255916020019190600101906117d5565b506117fc929150611800565b5090565b5b808211156117fc5760008155600101611801565b600067ffffffffffffffff8084111561183057611830611de4565b604051601f8501601f19908116603f0116810190828211818310171561185857611858611de4565b8160405280935085815286868601111561187157600080fd5b858560208301376000602087830101525050509392505050565b80356001600160a01b03811681146118a257600080fd5b919050565b6000602082840312156118b8578081fd5b6113278261188b565b600080604083850312156118d3578081fd5b6118dc8361188b565b91506118ea6020840161188b565b90509250929050565b600080600060608486031215611907578081fd5b6119108461188b565b925061191e6020850161188b565b9150604084013590509250925092565b60008060008060808587031215611943578081fd5b61194c8561188b565b935061195a6020860161188b565b925060408501359150606085013567ffffffffffffffff81111561197c578182fd5b8501601f8101871361198c578182fd5b61199b87823560208401611815565b91505092959194509250565b600080604083850312156119b9578182fd5b6119c28361188b565b9150602083013580151581146119d6578182fd5b809150509250929050565b600080604083850312156119f3578182fd5b6119fc8361188b565b946020939093013593505050565b600060208284031215611a1b578081fd5b813561132781611dfa565b600060208284031215611a37578081fd5b815161132781611dfa565b600080600060608486031215611a56578283fd5b833567ffffffffffffffff811115611a6c578384fd5b8401601f81018613611a7c578384fd5b611a8b86823560208401611815565b9660208601359650604090950135949350505050565b600060208284031215611ab2578081fd5b5035919050565b60008060408385031215611acb578182fd5b823591506118ea6020840161188b565b60008060408385031215611aed578182fd5b50508035926020909101359150565b60008151808452611b14816020860160208601611d4c565b601f01601f19169290920160200192915050565b60008351611b3a818460208801611d4c565b835190830190611b4e818360208801611d4c565b01949350505050565b6001600160a01b0385811682528416602082015260408101839052608060608201819052600090611b8a90830184611afc565b9695505050505050565b6020808252825182820181905260009190848201906040850190845b81811015611bcc57835183529284019291840191600101611bb0565b50909695505050505050565b6020815260006113276020830184611afc565b608081526000611bfe6080830187611afc565b6020830195909552506040810192909252606090910152919050565b6020808252602d908201527f4552433732313a2063616c6c6572206973206e6f7420746f6b656e206f776e6560408201526c1c881bdc88185c1c1c9bdd9959609a1b606082015260800190565b60208082526032908201527f4552433732313a207472616e7366657220746f206e6f6e20455243373231526560408201527131b2b4bb32b91034b6b83632b6b2b73a32b960711b606082015260800190565b60208082526025908201527f4552433732313a207472616e736665722066726f6d20696e636f72726563742060408201526437bbb732b960d91b606082015260800190565b60008219821115611d1157611d11611dce565b500190565b6000816000190483118215151615611d3057611d30611dce565b500290565b600082821015611d4757611d47611dce565b500390565b60005b83811015611d67578181015183820152602001611d4f565b838111156109d65750506000910152565b600181811c90821680611d8c57607f821691505b60208210811415611dad57634e487b7160e01b600052602260045260246000fd5b50919050565b6000600019821415611dc757611dc7611dce565b5060010190565b634e487b7160e01b600052601160045260246000fd5b634e487b7160e01b600052604160045260246000fd5b6001600160e01b031981168114610e7957600080fdfea26469706673582212200aa7a57a259bd56448e7c2719e6df36de8c176a221adad01ce56dbee3ef2dfa864736f6c63430008040033",
  "linkReferences": {},
  "deployedLinkReferences": {}
}