{
  "_format": "hh-sol-artifact-1",
  "contractName": "FractionalNFTMarketplace",
  "sourceName": "contracts/FractionalNFTMarketplace.sol",
  "abi": [
    {
      "inputs": [],
      "stateMutability": "nonpayable",
      "type": "constructor"
    },
    {
      "anonymous": false,
      "inputs": [
        {
          "indexed": true,
          "internalType": "address",
          "name": "owner",
          "type": "address"
        },
        {
          "indexed": true,
          "internalType": "address",
          "name": "approved",
          "type": "address"
        },
        {
          "indexed": true,
          "internalType": "uint256",
          "name": "tokenId",
          "type": "uint256"
        }
      ],
      "name": "Approval",
      "type": "event"
    },
    {
      "anonymous": false,
      "inputs": [
        {
          "indexed": true,
          "internalType": "address",
          "name": "owner",
          "type": "address"
        },
        {
          "indexed": true,
          "internalType": "address",
          "name": "operator",
          "type": "address"
        },
        {
          "indexed": false,
          "internalType": "bool",
          "name": "approved",
          "type": "bool"
        }
      ],
      "name": "ApprovalForAll",
      "type": "event"
    },
    {
      "anonymous": false,
      "inputs": [
        {
          "indexed": false,
          "internalType": "uint256",
          "name": "_fromTokenId",
          "type": "uint256"
        },
        {
          "indexed": false,
          "internalType": "uint256",
          "name": "_toTokenId",
          "type": "uint256"
        }
      ],
      "name": "BatchMetadataUpdate",
      "type": "event"
    },
    {
      "anonymous": false,
      "inputs": [
        {
          "indexed": false,
          "internalType": "uint256",
          "name": "_tokenId",
          "type": "uint256"
        }
      ],
      "name": "MetadataUpdate",
      "type": "event"
    },
    {
      "anonymous": false,
      "inputs": [
        {
          "indexed": true,
          "internalType": "uint256",
          "name": "tokenId",
          "type": "uint256"
        },
        {
          "indexed": false,
          "internalType": "address",
          "name": "owner",
          "type": "address"
        },
        {
          "indexed": false,
          "internalType": "address",
          "name": "seller",
          "type": "address"
        },
        {
          "indexed": false,
          "internalType": "uint256",
          "name": "pricePerShare",
          "type": "uint256"
        },
        {
          "indexed": false,
          "internalType": "uint256",
          "name": "totalShares",
          "type": "uint256"
        },
        {
          "indexed": false,
          "internalType": "uint256",
          "name": "availableShares",
          "type": "uint256"
        }
      ],
      "name": "TokenListedSuccess",
      "type": "event"
    },
    {
      "anonymous": false,
      "inputs": [
        {
          "indexed": true,
          "internalType": "address",
          "name": "from",
          "type": "address"
        },
        {
          "indexed": true,
          "internalType": "address",
          "name": "to",
          "type": "address"
        },
        {
          "indexed": true,
          "internalType": "uint256",
          "name": "tokenId",
          "type": "uint256"
        }
      ],
      "name": "Transfer",
      "type": "event"
    },
    {
      "inputs": [
        {
          "internalType": "address",
          "name": "to",
          "type": "address"
        },
        {
          "internalType": "uint256",
          "name": "tokenId",
          "type": "uint256"
        }
      ],
      "name": "approve",
      "outputs": [],
      "stateMutability": "nonpayable",
      "type": "function"
    },
    {
      "inputs": [
        {
          "internalType": "address",
          "name": "owner",
          "type": "address"
        }
      ],
      "name": "balanceOf",
      "outputs": [
        {
          "internalType": "uint256",
          "name": "",
          "type": "uint256"
        }
      ],
      "stateMutability": "view",
      "type": "function"
    },
    {
      "inputs": [
        {
          "internalType": "string",
          "name": "tokenURI",
          "type": "string"
        },
        {
          "internalType": "uint256",
          "name": "pricePerShare",
          "type": "uint256"
        },
        {
          "internalType": "uint256",
          "name": "totalShares",
          "type": "uint256"
        }
      ],
      "name": "createFractionalToken",
      "outputs": [
        {
          "internalType": "uint256",
          "name": "",
          "type": "uint256"
        }
      ],
      "stateMutability": "payable",
      "type": "function"
    },
    {
      "inputs": [
        {
          "internalType": "uint256",
          "name": "tokenId",
          "type": "uint256"
        },
        {
          "internalType": "uint256",
          "name": "shares",
          "type": "uint256"
        }
      ],
      "name": "executeFractionalPurchase",
      "outputs": [],
      "stateMutability": "payable",
      "type": "function"
    },
    {
      "inputs": [],
      "name": "getAllNFTs",
      "outputs": [
        {
          "internalType": "uint256[]",
          "name": "",
          "type": "uint256[]"
        }
      ],
      "stateMutability": "view",
      "type": "function"
    },
    {
      "inputs": [
        {
          "internalType": "uint256",
          "name": "tokenId",
          "type": "uint256"
        }
      ],
      "name": "getApproved",
      "outputs": [
        {
          "internalType": "address",
          "name": "",
          "type": "address"
        }
      ],
      "stateMutability": "view",
      "type": "function"
    },
    {
      "inputs": [],
      "name": "getListPrice",
      "outputs": [
        {
          "internalType": "uint256",
          "name": "",
          "type": "uint256"
        }
      ],
      "stateMutability": "view",
      "type": "function"
    },
    {
      "inputs": [
        {
          "internalType": "uint256",
          "name": "tokenId",
          "type": "uint256"
        },
        {
          "internalType": "address",
          "name": "account",
          "type": "address"
        }
      ],
      "name": "getSharesOwned",
      "outputs": [
        {
          "internalType": "uint256",
          "name": "",
          "type": "uint256"
        }
      ],
      "stateMutability": "view",
      "type": "function"
    },
    {
      "inputs": [
        {
          "internalType": "uint256",
          "name": "tokenId",
          "type": "uint256"
        }
      ],
      "name": "getTokenData",
      "outputs": [
        {
          "internalType": "string",
          "name": "URI",
          "type": "string"
        },
        {
          "internalType": "uint256",
          "name": "pricePerShare",
          "type": "uint256"
        },
        {
          "internalType": "uint256",
          "name": "totalShares",
          "type": "uint256"
        },
        {
          "internalType": "uint256",
          "name": "availableShares",
          "type": "uint256"
        }
      ],
      "stateMutability": "view",
      "type": "function"
    },
    {
      "inputs": [
        {
          "internalType": "uint256",
          "name": "tokenId",
          "type": "uint256"
        }
      ],
      "name": "getTotalShares",
      "outputs": [
        {
          "internalType": "uint256",
          "name": "",
          "type": "uint256"
        }
      ],
      "stateMutability": "view",
      "type": "function"
    },
    {
      "inputs": [
        {
          "internalType": "address",
          "name": "owner",
          "type": "address"
        },
        {
          "internalType": "address",
          "name": "operator",
          "type": "address"
        }
      ],
      "name": "isApprovedForAll",
      "outputs": [
        {
          "internalType": "bool",
          "name": "",
          "type": "bool"
        }
      ],
      "stateMutability": "view",
      "type": "function"
    },
    {
      "inputs": [],
      "name": "name",
      "outputs": [
        {
          "internalType": "string",
          "name": "",
          "type": "string"
        }
      ],
      "stateMutability": "view",
      "type": "function"
    },
    {
      "inputs": [
        {
          "internalType": "uint256",
          "name": "tokenId",
          "type": "uint256"
        }
      ],
      "name": "ownerOf",
      "outputs": [
        {
          "internalType": "address",
          "name": "",
          "type": "address"
        }
      ],
      "stateMutability": "view",
      "type": "function"
    },
    {
      "inputs": [
        {
          "internalType": "address",
          "name": "from",
          "type": "address"
        },
        {
          "internalType": "address",
          "name": "to",
          "type": "address"
        },
        {
          "internalType": "uint256",
          "name": "tokenId",
          "type": "uint256"
        }
      ],
      "name": "safeTransferFrom",
      "outputs": [],
      "stateMutability": "nonpayable",
      "type": "function"
    },
    {
      "inputs": [
        {
          "internalType": "address",
          "name": "from",
          "type": "address"
        },
        {
          "internalType": "address",
          "name": "to",
          "type": "address"
        },
        {
          "internalType": "uint256",
          "name": "tokenId",
          "type": "uint256"
        },
        {
          "internalType": "bytes",
          "name": "data",
          "type": "bytes"
        }
      ],
      "name": "safeTransferFrom",
      "outputs": [],
      "stateMutability": "nonpayable",
      "type": "function"
    },
    {
      "inputs": [
        {
          "internalType": "address",
          "name": "operator",
          "type": "address"
        },
        {
          "internalType": "bool",
          "name": "approved",
          "type": "bool"
        }
      ],
      "name": "setApprovalForAll",
      "outputs": [],
      "stateMutability": "nonpayable",
      "type": "function"
    },
    {
      "inputs": [
        {
          "internalType": "bytes4",
          "name": "interfaceId",
          "type": "bytes4"
        }
      ],
      "name": "supportsInterface",
      "outputs": [
        {
          "internalType": "bool",
          "name": "",
          "type": "bool"
        }
      ],
      "stateMutability": "view",
      "type": "function"
    },
    {
      "inputs": [],
      "name": "symbol",
      "outputs": [
        {
          "internalType": "string",
          "name": "",
          "type": "string"
        }
      ],
      "stateMutability": "view",
      "type": "function"
    },
    {
      "inputs": [
        {
          "internalType": "uint256",
          "name": "tokenId",
          "type": "uint256"
        }
      ],
      "name": "tokenURI",
      "outputs": [
        {
          "internalType": "string",
          "name": "",
          "type": "string"
        }
      ],
      "stateMutability": "view",
      "type": "function"
    },
    {
      "inputs": [
        {
          "internalType": "address",
          "name": "from",
          "type": "address"
        },
        {
          "internalType": "address",
          "name": "to",
          "type": "address"
        },
        {
          "internalType": "uint256",
          "name": "tokenId",
          "type": "uint256"
        }
      ],
      "name": "transferFrom",
      "outputs": [],
      "stateMutability": "nonpayable",
      "type": "function"
    },
    {
      "inputs": [
        {
          "internalType": "uint256",
          "name": "_listPrice",
          "type": "uint256"
        }
      ],
      "name": "updateListPrice",
      "outputs": [],
      "stateMutability": "payable",
      "type": "function"
    }
  ],
  "bytecode": "0x6080604052662386f26fc10000600a553480156200001c57600080fd5b50604080518082018252601881527f4672616374696f6e616c4e46544d61726b6574706c6163650000000000000000602080830191825283518085019094526005845264464e46544d60d81b9084015281519192916200007f91600091620000b0565b50805162000095906001906020840190620000b0565b5050600980546001600160a01b031916331790555062000193565b828054620000be9062000156565b90600052602060002090601f016020900481019282620000e257600085556200012d565b82601f10620000fd57805160ff19168380011785556200012d565b828001600101855582156200012d579182015b828111156200012d57825182559160200191906001019062000110565b506200013b9291506200013f565b5090565b5b808211156200013b576000815560010162000140565b600181811c908216806200016b57607f821691505b602082108114156200018d57634e487b7160e01b600052602260045260246000fd5b50919050565b611de780620001a36000396000f3fe60806040526004361061012a5760003560e01c806385fff858116100ab578063c322579c1161006f578063c322579c14610348578063c87b56dd1461035b578063d3d622f21461037b578063e0391b091461038e578063e7ebadfe146103b0578063e985e9c5146103f357600080fd5b806385fff8581461029657806395d89b41146102c3578063a22cb465146102d8578063b09afec1146102f8578063b88d4fde1461032857600080fd5b806342842e0e116100f257806342842e0e146102005780634f93d94c146102205780636352211e1461024157806368f1945f1461026157806370a082311461027657600080fd5b806301ffc9a71461012f57806306fdde0314610164578063081812fc14610186578063095ea7b3146101be57806323b872dd146101e0575b600080fd5b34801561013b57600080fd5b5061014f61014a3660046119ab565b61043c565b60405190151581526020015b60405180910390f35b34801561017057600080fd5b50610179610467565b60405161015b9190611b79565b34801561019257600080fd5b506101a66101a1366004611a42565b6104f9565b6040516001600160a01b03909116815260200161015b565b3480156101ca57600080fd5b506101de6101d9366004611982565b610520565b005b3480156101ec57600080fd5b506101de6101fb366004611894565b61063b565b34801561020c57600080fd5b506101de61021b366004611894565b61066c565b61023361022e3660046119e3565b610687565b60405190815260200161015b565b34801561024d57600080fd5b506101a661025c366004611a42565b610793565b34801561026d57600080fd5b50600a54610233565b34801561028257600080fd5b50610233610291366004611848565b6107f3565b3480156102a257600080fd5b506102336102b1366004611a42565b6000908152600b602052604090205490565b3480156102cf57600080fd5b50610179610879565b3480156102e457600080fd5b506101de6102f3366004611948565b610888565b34801561030457600080fd5b50610318610313366004611a42565b610897565b60405161015b9493929190611b8c565b34801561033457600080fd5b506101de6103433660046118cf565b610945565b6101de610356366004611a42565b61097d565b34801561036757600080fd5b50610179610376366004611a42565b6109e8565b6101de610389366004611a7c565b610af9565b34801561039a57600080fd5b506103a3610cad565b60405161015b9190611b35565b3480156103bc57600080fd5b506102336103cb366004611a5a565b6000918252600c602090815260408084206001600160a01b0393909316845291905290205490565b3480156103ff57600080fd5b5061014f61040e366004611862565b6001600160a01b03918216600090815260056020908152604080832093909416825291909152205460ff1690565b60006001600160e01b03198216632483248360e11b1480610461575061046182610d6b565b92915050565b60606000805461047690611d19565b80601f01602080910402602001604051908101604052809291908181526020018280546104a290611d19565b80156104ef5780601f106104c4576101008083540402835291602001916104ef565b820191906000526020600020905b8154815290600101906020018083116104d257829003601f168201915b5050505050905090565b600061050482610dbb565b506000908152600460205260409020546001600160a01b031690565b600061052b82610793565b9050806001600160a01b0316836001600160a01b0316141561059e5760405162461bcd60e51b815260206004820152602160248201527f4552433732313a20617070726f76616c20746f2063757272656e74206f776e656044820152603960f91b60648201526084015b60405180910390fd5b336001600160a01b03821614806105ba57506105ba813361040e565b61062c5760405162461bcd60e51b815260206004820152603d60248201527f4552433732313a20617070726f76652063616c6c6572206973206e6f7420746f60448201527f6b656e206f776e6572206f7220617070726f76656420666f7220616c6c0000006064820152608401610595565b6106368383610e1d565b505050565b6106453382610e8b565b6106615760405162461bcd60e51b815260040161059590611bbb565b610636838383610f09565b61063683838360405180602001604052806000815250610945565b6000610697600780546001019055565b60006106a260075490565b90506000841180156106b45750600083115b6107005760405162461bcd60e51b815260206004820152601d60248201527f496e76616c6964207072696365206f7220746f74616c207368617265730000006044820152606401610595565b6000818152600b60209081526040808320869055600c8252808320338085529252909120849055610731908261106d565b61073b8186611087565b60408051308152336020820152908101859052606081018490526080810184905281907fd53877dc4e9cc65ecb784547d2bd05a44fca0c1fb96bfdb44d653486d03f1a4c9060a00160405180910390a2949350505050565b6000818152600260205260408120546001600160a01b0316806104615760405162461bcd60e51b8152602060048201526018602482015277115490cdcc8c4e881a5b9d985b1a59081d1bdad95b88125160421b6044820152606401610595565b60006001600160a01b03821661085d5760405162461bcd60e51b815260206004820152602960248201527f4552433732313a2061646472657373207a65726f206973206e6f7420612076616044820152683634b21037bbb732b960b91b6064820152608401610595565b506001600160a01b031660009081526003602052604090205490565b60606001805461047690611d19565b610893338383611159565b5050565b606060008060006108bf856000908152600260205260409020546001600160a01b0316151590565b6109025760405162461bcd60e51b8152602060048201526014602482015273151bdad95b88191bd95cc81b9bdd08195e1a5cdd60621b6044820152606401610595565b61090b856109e8565b9350610916600a5490565b6000958652600b6020908152604080882054600c8352818920338a529092529096205494969095949350915050565b61094f3383610e8b565b61096b5760405162461bcd60e51b815260040161059590611bbb565b61097784848484611228565b50505050565b6009546001600160a01b031633146109e35760405162461bcd60e51b815260206004820152602360248201527f4f6e6c79206f776e65722063616e20757064617465206c697374696e6720707260448201526269636560e81b6064820152608401610595565b600a55565b60606109f382610dbb565b60008281526006602052604081208054610a0c90611d19565b80601f0160208091040260200160405190810160405280929190818152602001828054610a3890611d19565b8015610a855780601f10610a5a57610100808354040283529160200191610a85565b820191906000526020600020905b815481529060010190602001808311610a6857829003601f168201915b505050505090506000610aa360408051602081019091526000815290565b9050805160001415610ab6575092915050565b815115610ae8578082604051602001610ad0929190611ac9565b60405160208183030381529060405292505050919050565b610af18461125b565b949350505050565b600a546000610b088383611cb7565b90506000610b1585610793565b9050813414610b7f5760405162461bcd60e51b815260206004820152603060248201527f506c65617365207375626d69742074686520636f7272656374207061796d656e60448201526f7420666f72207468652073686172657360801b6064820152608401610595565b600084118015610bb157506000858152600c602090815260408083206001600160a01b03851684529091529020548411155b610bfd5760405162461bcd60e51b815260206004820152601860248201527f496e76616c6964206e756d626572206f662073686172657300000000000000006044820152606401610595565b6000858152600c602090815260408083206001600160a01b038516845290915281208054869290610c2f908490611cd6565b90915550506000858152600c6020908152604080832033845290915281208054869290610c5d908490611c9f565b90915550506008805460010190556009546040516001600160a01b039091169083156108fc029084906000818181858888f19350505050158015610ca5573d6000803e3d6000fd5b505050505050565b60606000610cba60075490565b905060008167ffffffffffffffff811115610ce557634e487b7160e01b600052604160045260246000fd5b604051908082528060200260200182016040528015610d0e578160200160208202803683370190505b50905060005b82811015610d6457610d27816001611c9f565b828281518110610d4757634e487b7160e01b600052603260045260246000fd5b602090810291909101015280610d5c81611d54565b915050610d14565b5092915050565b60006001600160e01b031982166380ac58cd60e01b1480610d9c57506001600160e01b03198216635b5e139f60e01b145b8061046157506301ffc9a760e01b6001600160e01b0319831614610461565b6000818152600260205260409020546001600160a01b0316610e1a5760405162461bcd60e51b8152602060048201526018602482015277115490cdcc8c4e881a5b9d985b1a59081d1bdad95b88125160421b6044820152606401610595565b50565b600081815260046020526040902080546001600160a01b0319166001600160a01b0384169081179091558190610e5282610793565b6001600160a01b03167f8c5be1e5ebec7d5bd14f71427d1e84f3dd0314c0f7b2291e5b200ac8c7c3b92560405160405180910390a45050565b600080610e9783610793565b9050806001600160a01b0316846001600160a01b03161480610ede57506001600160a01b0380821660009081526005602090815260408083209388168352929052205460ff165b80610af15750836001600160a01b0316610ef7846104f9565b6001600160a01b031614949350505050565b826001600160a01b0316610f1c82610793565b6001600160a01b031614610f425760405162461bcd60e51b815260040161059590611c5a565b6001600160a01b038216610fa45760405162461bcd60e51b8152602060048201526024808201527f4552433732313a207472616e7366657220746f20746865207a65726f206164646044820152637265737360e01b6064820152608401610595565b826001600160a01b0316610fb782610793565b6001600160a01b031614610fdd5760405162461bcd60e51b815260040161059590611c5a565b600081815260046020908152604080832080546001600160a01b03199081169091556001600160a01b0387811680865260038552838620805460001901905590871680865283862080546001019055868652600290945282852080549092168417909155905184937fddf252ad1be2c89b69c2b068fc378daa952ba7f163c4a11628f55a4df523b3ef91a4505050565b6108938282604051806020016040528060008152506112cf565b6000828152600260205260409020546001600160a01b03166111025760405162461bcd60e51b815260206004820152602e60248201527f45524337323155524953746f726167653a2055524920736574206f66206e6f6e60448201526d32bc34b9ba32b73a103a37b5b2b760911b6064820152608401610595565b600082815260066020908152604090912082516111219284019061171d565b506040518281527ff8e1a15aba9398e019f0b49df1a4fde98ee17ae345cb5f6b5e2c27f5033e8ce79060200160405180910390a15050565b816001600160a01b0316836001600160a01b031614156111bb5760405162461bcd60e51b815260206004820152601960248201527f4552433732313a20617070726f766520746f2063616c6c6572000000000000006044820152606401610595565b6001600160a01b03838116600081815260056020908152604080832094871680845294825291829020805460ff191686151590811790915591519182527f17307eab39ab6107e8899845ad3d59bd9653f200f220920489ca2b5937696c31910160405180910390a3505050565b611233848484610f09565b61123f84848484611302565b6109775760405162461bcd60e51b815260040161059590611c08565b606061126682610dbb565b600061127d60408051602081019091526000815290565b9050600081511161129d57604051806020016040528060008152506112c8565b806112a78461140f565b6040516020016112b8929190611ac9565b6040516020818303038152906040525b9392505050565b6112d983836114ba565b6112e66000848484611302565b6106365760405162461bcd60e51b815260040161059590611c08565b60006001600160a01b0384163b1561140457604051630a85bd0160e11b81526001600160a01b0385169063150b7a0290611346903390899088908890600401611af8565b602060405180830381600087803b15801561136057600080fd5b505af1925050508015611390575060408051601f3d908101601f1916820190925261138d918101906119c7565b60015b6113ea573d8080156113be576040519150601f19603f3d011682016040523d82523d6000602084013e6113c3565b606091505b5080516113e25760405162461bcd60e51b815260040161059590611c08565b805181602001fd5b6001600160e01b031916630a85bd0160e11b149050610af1565b506001949350505050565b6060600061141c83611645565b600101905060008167ffffffffffffffff81111561144a57634e487b7160e01b600052604160045260246000fd5b6040519080825280601f01601f191660200182016040528015611474576020820181803683370190505b5090508181016020015b600019016f181899199a1a9b1b9c1cb0b131b232b360811b600a86061a8153600a85049450846114ad576114b2565b61147e565b509392505050565b6001600160a01b0382166115105760405162461bcd60e51b815260206004820181905260248201527f4552433732313a206d696e7420746f20746865207a65726f20616464726573736044820152606401610595565b6000818152600260205260409020546001600160a01b0316156115755760405162461bcd60e51b815260206004820152601c60248201527f4552433732313a20746f6b656e20616c7265616479206d696e746564000000006044820152606401610595565b6000818152600260205260409020546001600160a01b0316156115da5760405162461bcd60e51b815260206004820152601c60248201527f4552433732313a20746f6b656e20616c7265616479206d696e746564000000006044820152606401610595565b6001600160a01b038216600081815260036020908152604080832080546001019055848352600290915280822080546001600160a01b0319168417905551839291907fddf252ad1be2c89b69c2b068fc378daa952ba7f163c4a11628f55a4df523b3ef908290a45050565b60008072184f03e93ff9f4daa797ed6e38ed64bf6a1f0160401b83106116845772184f03e93ff9f4daa797ed6e38ed64bf6a1f0160401b830492506040015b6d04ee2d6d415b85acef810000000083106116b0576d04ee2d6d415b85acef8100000000830492506020015b662386f26fc1000083106116ce57662386f26fc10000830492506010015b6305f5e10083106116e6576305f5e100830492506008015b61271083106116fa57612710830492506004015b6064831061170c576064830492506002015b600a83106104615760010192915050565b82805461172990611d19565b90600052602060002090601f01602090048101928261174b5760008555611791565b82601f1061176457805160ff1916838001178555611791565b82800160010185558215611791579182015b82811115611791578251825591602001919060010190611776565b5061179d9291506117a1565b5090565b5b8082111561179d57600081556001016117a2565b600067ffffffffffffffff808411156117d1576117d1611d85565b604051601f8501601f19908116603f011681019082821181831017156117f9576117f9611d85565b8160405280935085815286868601111561181257600080fd5b858560208301376000602087830101525050509392505050565b80356001600160a01b038116811461184357600080fd5b919050565b600060208284031215611859578081fd5b6112c88261182c565b60008060408385031215611874578081fd5b61187d8361182c565b915061188b6020840161182c565b90509250929050565b6000806000606084860312156118a8578081fd5b6118b18461182c565b92506118bf6020850161182c565b9150604084013590509250925092565b600080600080608085870312156118e4578081fd5b6118ed8561182c565b93506118fb6020860161182c565b925060408501359150606085013567ffffffffffffffff81111561191d578182fd5b8501601f8101871361192d578182fd5b61193c878235602084016117b6565b91505092959194509250565b6000806040838503121561195a578182fd5b6119638361182c565b915060208301358015158114611977578182fd5b809150509250929050565b60008060408385031215611994578182fd5b61199d8361182c565b946020939093013593505050565b6000602082840312156119bc578081fd5b81356112c881611d9b565b6000602082840312156119d8578081fd5b81516112c881611d9b565b6000806000606084860312156119f7578283fd5b833567ffffffffffffffff811115611a0d578384fd5b8401601f81018613611a1d578384fd5b611a2c868235602084016117b6565b9660208601359650604090950135949350505050565b600060208284031215611a53578081fd5b5035919050565b60008060408385031215611a6c578182fd5b8235915061188b6020840161182c565b60008060408385031215611a8e578182fd5b50508035926020909101359150565b60008151808452611ab5816020860160208601611ced565b601f01601f19169290920160200192915050565b60008351611adb818460208801611ced565b835190830190611aef818360208801611ced565b01949350505050565b6001600160a01b0385811682528416602082015260408101839052608060608201819052600090611b2b90830184611a9d565b9695505050505050565b6020808252825182820181905260009190848201906040850190845b81811015611b6d57835183529284019291840191600101611b51565b50909695505050505050565b6020815260006112c86020830184611a9d565b608081526000611b9f6080830187611a9d565b6020830195909552506040810192909252606090910152919050565b6020808252602d908201527f4552433732313a2063616c6c6572206973206e6f7420746f6b656e206f776e6560408201526c1c881bdc88185c1c1c9bdd9959609a1b606082015260800190565b60208082526032908201527f4552433732313a207472616e7366657220746f206e6f6e20455243373231526560408201527131b2b4bb32b91034b6b83632b6b2b73a32b960711b606082015260800190565b60208082526025908201527f4552433732313a207472616e736665722066726f6d20696e636f72726563742060408201526437bbb732b960d91b606082015260800190565b60008219821115611cb257611cb2611d6f565b500190565b6000816000190483118215151615611cd157611cd1611d6f565b500290565b600082821015611ce857611ce8611d6f565b500390565b60005b83811015611d08578181015183820152602001611cf0565b838111156109775750506000910152565b600181811c90821680611d2d57607f821691505b60208210811415611d4e57634e487b7160e01b600052602260045260246000fd5b50919050565b6000600019821415611d6857611d68611d6f565b5060010190565b634e487b7160e01b600052601160045260246000fd5b634e487b7160e01b600052604160045260246000fd5b6001600160e01b031981168114610e1a57600080fdfea26469706673582212200a259925e4b01a7ed263223530615d351b5cbfecfac6ae49430c100a9dc03c0764736f6c63430008040033",
  "linkReferences": {},
  "deployedLinkReferences": {}
}